:020000040800F2
:1000000000000120D50D0008D50C0008DB0C00080D
:10001000E10C0008E70C0008ED0C000800000000EF
:100020000000000000000000000000005145000832
:10003000F30C00080000000081450008E9450008B5
:10004000250E0008250E0008250E0008250E0008C4
:10005000250E0008250E0008250E0008250E0008B4
:10006000250E0008250E0008250E0008250E0008A4
:10007000250E0008250E0008250E0008250E000894
:10008000250E0008250E0008250E000800000000BF
:10009000000000000000000000000000250E000825
:1000A000250E0008010D0008250E0008250E000889
:1000B000250E0008250E0008250E0008250E000854
:1000C000250E0008250E0008250E0008250E000844
:1000D000250E0008250E0008250E0008000000006F
:1000E000250E0008250E0008250E0008000000005F
:1000F000000000000000000000000000250E0008C5
:1001000000000000250E0008250E0008250E00083E
:1001100000000000000000000000000000000000DF
:10012000150D0008250E0008250E0008250E0008F4
:10013000250E000800000000000000000000000084
:10014000000000000000000000000000290D000871
:10015000250E0008250E0008250E0008250E0008B3
:10016000250E0008250E0008000000000000000019
:10017000000000000000000000000000000000007F
:1001800000000000250E0008000000000000000034
:04019000250E000830
:1001A00010B5054C237833B9044B13B10448AFF3B1
:1001B00000800123237010BDD80100200000000042
:1001C0000885000808B5034B1BB103490348AFF38A
:1001D000008008BD00000000DC0100200885000848
:1001E000034613F8012B002AFBD1181A0138704777
:1001F00001F0FF01102A2BDB10F0070F08D010F8D8
:10020000013B013A8B422DD010F0070F42B3F6D1DB
:10021000F0B441EA012141EA014122F007047FF0F4
:1002200000070023F0E80256083C85EA010586EA4B
:10023000010685FA47F5A3FA87F586FA47F6A5FA87
:1002400087F68EB9EED1F0BC01F0FF0102F0070293
:1002500032B110F8013B013A83EA010313B1F8D13E
:100260000020704701387047002D06BF354603381F
:10027000073815F0010F07D1013015F4807F02BF58
:10028000013015F4C03F0130F0BC0138704700BFA9
:1002900081F0004102E000BF83F0004330B54FEA37
:1002A00041044FEA430594EA050F08BF90EA020FA4
:1002B0001FBF54EA000C55EA020C7FEA645C7FEA37
:1002C000655C00F0E2804FEA5454D4EB5555B8BF5A
:1002D0006D420CDD2C4480EA020281EA030382EACB
:1002E000000083EA010180EA020281EA0303362D5D
:1002F00088BF30BD11F0004F4FEA01314FF4801C30
:100300004CEA113102D0404261EB410113F0004F41
:100310004FEA03334CEA133302D0524263EB4303F8
:1003200094EA050F00F0A780A4F10104D5F1200E96
:100330000DDB02FA0EFC22FA05F2801841F10001F1
:1003400003FA0EF2801843FA05F359410EE0A5F1C5
:1003500020050EF1200E012A03FA0EFC28BF4CF0F6
:10036000020C43FA05F3C01851EBE37101F00045AC
:1003700007D54FF0000EDCF1000C7EEB00006EEBB9
:100380000101B1F5801F1BD3B1F5001F0CD3490843
:100390005FEA30004FEA3C0C04F101044FEA44529A
:1003A00012F5800F80F09A80BCF1004F08BF5FEA21
:1003B000500C50F1000041EB045141EA050130BD01
:1003C0005FEA4C0C404141EB010111F4801FA4F1A4
:1003D0000104E9D191F0000F04BF01460020B1FAF9
:1003E00081F308BF2033A3F10B03B3F120020CDA31
:1003F0000C3208DD02F1140CC2F10C0201FA0CF00F
:1004000021FA02F10CE002F11402D8BFC2F1200C73
:1004100001FA02F120FA0CFCDCBF41EA0C01904029
:10042000E41AA2BF01EB0451294330BD6FEA040472
:100430001F3C1CDA0C340EDC04F11404C4F120025D
:1004400020FA04F001FA02F340EA030021FA04F36F
:1004500045EA030130BDC4F10C04C4F1200220FAC6
:1004600002F001FA04F340EA0300294630BD21FA04
:1004700004F0294630BD94F0000F83F4801306BFCA
:1004800081F480110134013D4EE77FEA645C18BFBE
:100490007FEA655C29D094EA050F08BF90EA020F55
:1004A00005D054EA000C04BF1946104630BD91EA4D
:1004B000030F1EBF0021002030BD5FEA545C05D150
:1004C0004000494128BF41F0004130BD14F580048F
:1004D0003CBF01F5801130BD01F0004545F0FE4103
:1004E00041F470014FF0000030BD7FEA645C1ABF38
:1004F000194610467FEA655C1CBF0B46024650EA6F
:10050000013406BF52EA033591EA030F41F400219A
:1005100030BD00BF90F0000F04BF0021704730B520
:100520004FF4806404F132044FF000054FF00001F5
:1005300050E700BF90F0000F04BF0021704730B5B6
:100540004FF4806404F1320410F0004548BF40428B
:100550004FF000013EE700BF42004FEAE2014FEAE0
:1005600031014FEA02701FBF12F07F4393F07F4FBB
:1005700081F06051704732F07F4208BF704793F0BE
:100580007F4F04BF41F40021704730B54FF46074D1
:1005900001F0004521F000411CE700BF50EA0102D4
:1005A00008BF704730B54FF000050AE050EA01027D
:1005B00008BF704730B511F0004502D5404261EBED
:1005C00041014FF4806404F132045FEA915C3FF42E
:1005D000D8AE4FF003025FEADC0C18BF03325FEACB
:1005E000DC0C18BF033202EBDC02C2F1200300FA7C
:1005F00003FC20FA02F001FA03FE40EA0E0021FAA1
:1006000002F11444BDE600BF70B54FF0FF0C4CF48E
:10061000E06C1CEA11541DBF1CEA135594EA0C0F40
:1006200095EA0C0F00F0DEF82C4481EA030621EA7B
:100630004C5123EA4C5350EA013518BF52EA0335B6
:1006400041F4801143F4801338D0A0FB02CE4FF068
:100650000005E1FB02E506F00042E0FB03E54FF098
:100660000006E1FB03569CF0000F18BF4EF0010E90
:10067000A4F1FF04B6F5007F64F5407404D25FEA8C
:100680004E0E6D4146EB060642EAC62141EA55513F
:100690004FEAC52040EA5E504FEACE2EB4F1FD0C81
:1006A00088BFBCF5E06F1ED8BEF1004F08BF5FEAFF
:1006B000500E50F1000041EB045170BD06F00046B1
:1006C00046EA010140EA020081EA0301B4EB5C045E
:1006D000C2BFD4EB0C0541EA045170BD41F4801156
:1006E0004FF0000E013C00F3AB8014F1360FDEBF7B
:1006F000002001F0004170BDC4F10004203C35DA57
:100700000C341BDC04F11404C4F1200500FA05F3D9
:1007100020FA04F001FA05F240EA020001F000427A
:1007200021F0004110EBD37021FA04F642EB0601F0
:100730005EEA430E08BF20EAD37070BDC4F10C041A
:10074000C4F1200500FA04F320FA05F001FA04F2DE
:1007500040EA020001F0004110EBD37041F10001CA
:100760005EEA430E08BF20EAD37070BDC4F12005D5
:1007700000FA05F24EEA020E20FA04F301FA05F23D
:1007800043EA020321FA04F001F0004121FA04F2E5
:1007900020EA020000EBD3705EEA430E08BF20EAB5
:1007A000D37070BD94F0000F0FD101F000464000EF
:1007B00041EB010111F4801F08BF013CF7D041EA71
:1007C000060195F0000F18BF704703F00046520075
:1007D00043EB030313F4801F08BF013DF7D043EA46
:1007E0000603704794EA0C0F0CEA135518BF95EAFC
:1007F0000C0F0CD050EA410618BF52EA4306D1D183
:1008000081EA030101F000414FF0000070BD50EAA1
:10081000410606BF1046194652EA430619D094EA2B
:100820000C0F02D150EA013613D195EA0C0F05D115
:1008300052EA03361CBF104619460AD181EA030169
:1008400001F0004141F0FE4141F470014FF0000021
:1008500070BD41F0FE4141F4780170BD70B54FF0BC
:10086000FF0C4CF4E06C1CEA11541DBF1CEA13553C
:1008700094EA0C0F95EA0C0F00F0A7F8A4EB05041E
:1008800081EA030E52EA03354FEA013100F0888015
:100890004FEA03334FF0805545EA131343EA1263DE
:1008A0004FEA022245EA111545EA10654FEA002693
:1008B0000EF000419D4208BF964244F1FD0404F54C
:1008C000407402D25B084FEA3202B61A65EB0305A8
:1008D0005B084FEA32024FF480104FF4002CB6EB65
:1008E000020E75EB030E22BFB61A754640EA0C00E5
:1008F0005B084FEA3202B6EB020E75EB030E22BF25
:10090000B61A754640EA5C005B084FEA3202B6EB65
:10091000020E75EB030E22BFB61A754640EA9C0024
:100920005B084FEA3202B6EB020E75EB030E22BFF4
:10093000B61A754640EADC0055EA060E18D04FEAB2
:10094000051545EA16754FEA06164FEAC30343EA52
:1009500052734FEAC2025FEA1C1CC0D111F4801F1F
:100960000BD141EA00014FF000004FF0004CB6E718
:1009700011F4801F04BF01430020B4F1FD0C88BFB7
:10098000BCF5E06F3FF6AFAEB5EB030C04BFB6EBC2
:10099000020C5FEA500C50F1000041EB045170BDB5
:1009A0000EF0004E4EEA113114EB5C04C2BFD4EBE2
:1009B0000C0541EA045170BD41F480114FF0000E66
:1009C000013C90E645EA060E8DE60CEA135594EAE2
:1009D0000C0F08BF95EA0C0F3FF43BAF94EA0C0FE5
:1009E0000AD150EA01347FF434AF95EA0C0F7FF45A
:1009F00025AF104619462CE795EA0C0F06D152EAAE
:100A000003353FF4FDAE1046194622E750EA410691
:100A100018BF52EA43067FF4C5AE50EA41047FF4A2
:100A20000DAF52EA43057FF4EBAE12E74FF0FF3C07
:100A300006E000BF4FF0010C02E000BF4FF0010CD8
:100A40004DF804CD4FEA410C7FEA6C5C4FEA430C51
:100A500018BF7FEA6C5C1BD001B050EA410C0CBFA0
:100A600052EA430C91EA030F02BF90EA020F002002
:100A7000704710F1000F91EA030F58BF994208BF69
:100A800090422CBFD8176FEAE37040F00100704726
:100A90004FEA410C7FEA6C5C02D150EA013C07D17D
:100AA0004FEA430C7FEA6C5CD6D152EA033CD3D0C8
:100AB0005DF8040B704700BF8446104662468C46C2
:100AC0001946634600E000BF01B5FFF7B7FF0028F5
:100AD00048BF10F1000F01BD4DF808EDFFF7F4FF1E
:100AE0000CBF012000205DF808FB00BF4DF808EDA9
:100AF000FFF7EAFF34BF012000205DF808FB00BFCC
:100B00004DF808EDFFF7E0FF94BF012000205DF8ED
:100B100008FB00BF4DF808EDFFF7CEFF94BF0120A2
:100B200000205DF808FB00BF4DF808EDFFF7C4FF9B
:100B300034BF012000205DF808FB00BF4FEA410CE4
:100B40007FEA6C5C02D150EA013C0AD14FEA430CC7
:100B50007FEA6C5C02D152EA033C02D14FF0000004
:100B600070474FF0010070474FEA410212F5001242
:100B700015D211D56FF47873B3EB625212D94FEAE4
:100B8000C12343F0004343EA505311F0004F23FACE
:100B900002F018BF404270474FF00000704750EA23
:100BA000013005D111F0004008BF6FF000407047E0
:100BB0004FF00000704700BF4A0011D212F500123A
:100BC00011D20DD56FF47873B3EB62520ED44FEAA5
:100BD000C12343F0004343EA505323FA02F0704725
:100BE0004FF00000704750EA013002D14FF0FF3063
:100BF00070474FF0000070474FEA4102B2F1E04306
:100C000024BFB3F5001CDCF1FE5C0DD901F0004CF3
:100C10004FEAC0024CEA5070B2F1004F40EB830043
:100C200008BF20F00100704711F0804F21D113F16F
:100C30003872BCBF01F00040704741F480114FEAA8
:100C40005252C2F11802C2F1200C10FA0CF320FA31
:100C500002F018BF40F001004FEAC1234FEAD3234E
:100C600003FA0CFC40EA0C0023FA02F34FEA4303B8
:100C7000CCE77FEA625307D150EA01331EBF4FF041
:100C8000FE4040F44000704701F0004040F0FE405C
:100C900040F40000704700BF80B400AF0023184646
:100CA000BD465DF8047B704780B582B000AF7860C8
:100CB0007B681B68044A934201D100F0B5F800BF7D
:100CC0000837BD4680BD00BF0000014080B400AFC2
:100CD00072B6FEE780B400AFFEE780B400AFFEE777
:100CE00080B400AFFEE780B400AFFEE780B400AF91
:100CF000FEE780B400AF00BFBD465DF8047B7047DF
:100D000080B500AF024801F0B3F900BF80BD00BF5D
:100D10003407002080B500AF024800F099F800BF0A
:100D200080BD00BFD406002080B500AF024800F0AF
:100D300019FA00BF80BD00BF7807002080B586B0DB
:100D400000AF7860144A154BD31A7B617B693B6115
:100D5000134B1B68002B02D1114B124A1A60104B27
:100D60001A687B6813443A699A4207D203F062FE1C
:100D700002460C2313604FF0FF3309E0084B1B6859
:100D8000FB60074B1A687B681344054A1360FB68D5
:100D900018461837BD4680BD000001200004000041
:100DA000F4010020880B002080B400AF084BD3F87A
:100DB0008830074A43F47003C2F88830044B4FF080
:100DC00000629A6000BFBD465DF8047B704700BFBB
:100DD00000ED00E0DFF834D0002103E00C4B5B585D
:100DE000435004310B480C4B42189A42F6D30B4A3D
:100DF00002E0002342F8043B094B9A42F9D3FFF783
:100E0000D3FF03F01DFEFFF747FF704700000120EE
:100E10004888000800000020D8010020D8010020E8
:100E2000840B0020FEE7000080B400AF064B1B7867
:100E30001A46064B1B681344044A136000BFBD46A4
:100E40005DF8047B704700BF040000207407002099
:100E500080B586B000AF78600023BB60924B1B6802
:100E6000924AA2FB03239B0A7B617B689B6D3B61DB
:100E70003B691B68FB607B68DB6D08229A40FB685E
:100E80001340002B1AD07B681B681B6803F0040317
:100E9000002B13D07B681B681A687B681B6822F0E4
:100EA00004021A607B68DB6D08229A403B699A60F5
:100EB0007B685B6D43F001027B685A657B68DB6D84
:100EC00001229A40FB681340002B12D07B681B68FC
:100ED0005B6903F08003002B0BD07B68DB6D012284
:100EE0009A403B699A607B685B6D43F002027B68C5
:100EF0005A657B68DB6D04229A40FB681340002B27
:100F000012D07B681B681B6803F00203002B0BD018
:100F10007B68DB6D04229A403B699A607B685B6D5D
:100F200043F004027B685A657B68DB6D10229A40AF
:100F3000FB681340002B43D07B681B681B6803F0E1
:100F40000803002B3CD07B68DB6D10229A403B6984
:100F50009A607B681B681B6803F48023002B18D001
:100F60007B681B681B6803F40023002B08D17B6897
:100F70001B6C002B24D07B681B6C786898471FE0A3
:100F80007B689B6C002B1BD07B689B6C78689847B8
:100F900016E07B681B681B6803F48073002B07D185
:100FA0007B681B681A687B681B6822F008021A605D
:100FB0007B681B6C002B03D07B681B6C78689847A0
:100FC0007B68DB6D20229A40FB681340002B00F009
:100FD0008E807B681B681B6803F01003002B00F0F9
:100FE00086807B68DB6D20229A403B699A607B6833
:100FF00093F83530DBB2052B36D17B681B681A6855
:101000007B681B6822F016021A607B681B685A69AD
:101010007B681B6822F080025A617B681B6C002B86
:1010200003D17B689B6C002B07D07B681B681A6818
:101030007B681B6822F008021A607B68DB6D3F2228
:101040009A403B699A607B68002283F834207B6871
:10105000012283F835207B681B6D002B7DD07B68D7
:101060001B6D7868984778E07B681B681B6803F401
:101070008023002B1CD07B681B681B6803F40023B3
:10108000002B08D17B685B6C002B30D07B685B6CDD
:10109000786898472BE07B68DB6B002B27D07B6858
:1010A000DB6B7868984722E000000020B5814E1B7A
:1010B0007B681B681B6803F48073002B0FD17B686F
:1010C0001B681A687B681B6822F010021A607B6834
:1010D000002283F834207B68012283F835207B6866
:1010E000DB6B002B03D07B68DB6B786898477B68F1
:1010F0005B6D002B32D07B685B6D03F00103002B2E
:1011000022D07B68052283F835207B681B681A682B
:101110007B681B6822F001021A60BB680133BB6068
:101120007A699A4207D37B681B681B6803F0010346
:10113000002BF2D100E000BF7B68002283F834204E
:101140007B68012283F835207B68DB6C002B05D09F
:101150007B68DB6C7868984700E000BF1837BD46B5
:1011600080BD00BF90B58DB000AF78607B681B6814
:101170003B623B6AFB617B681B68184601F0B2FF6B
:101180000346002B40F09D837B681B68184601F0E6
:1011900016FF0346002B00F093837B681B681846FC
:1011A00001F00DFF034603F00203022B07D17B6819
:1011B0001B685A697B681B6802F002025A617B68EF
:1011C0001B68184601F0FBFE034603F01003102BCA
:1011D00061D17B681B689A697B681B6822F01002EA
:1011E0009A613B6A1B6ABB61BB6903F00F0213463D
:1011F000DB009B1A9B0003F5FC737A6813440433ED
:101200007B61BB695B0C03F00F03022B24D1BA692D
:1012100047F6F0731340002B35D07B69D968BB6962
:101220001B099BB2C3F30A039BB21A46386A01F04A
:10123000A3FD7B69DA68BB691B09C3F30A031A447F
:101240007B69DA607B699A69BB691B09C3F30A038E
:101250001A447B699A6116E0BB695B0C03F00F03CB
:10126000062B10D17B6803F5717308221946386A82
:1012700001F082FD7B699A69BB691B09C3F30A030C
:101280001A447B699A617B681B689A697B681B6852
:1012900042F010029A617B681B68184601F08FFECD
:1012A000034603F40023B3F5002F6ED100237B62C5
:1012B0007B681B68184601F095FEB86262E0BB6A65
:1012C00003F00103002B57D07B681B687A6AD2B207
:1012D0001146184601F0BAFE38613B6903F001037C
:1012E000002B0CD07B6A5A01FB69134403F5306371
:1012F0001A4601239360796A786800F04FFD3B69D4
:1013000003F00803002B0CD07B6A5A01FB691344DD
:1013100003F530631A4608239360796A786800F011
:1013200049FE3B6903F01003002B08D07B6A5A0189
:10133000FB69134403F530631A46102393603B693D
:1013400003F02003002B08D07B6A5A01FB69134489
:1013500003F530631A46202393603B6903F400537E
:10136000002B09D07B6A5A01FB69134403F53063F3
:101370001A464FF4005393607B6A01337B62BB6A69
:101380005B08BB62BB6A002B99D17B681B6818465F
:1013900001F015FE034603F48023B3F5802F40F0DF
:1013A000C0807B681B68184601F036FEB8620023D7
:1013B0007B62B2E0BB6A03F00103002B00F0A78060
:1013C0007B681B687A6AD2B21146184601F05CFE4F
:1013D00038613B6903F00103002B57D07B6A03F0AF
:1013E0000F03012202FA03F3FB60FB6903F50063BC
:1013F0005A6BFB68DB43F96901F5006113404B63ED
:101400007B6A5A01FB69134403F510631A460123F2
:1014100093607B681B69012B32D179687A6A134625
:10142000DB009B1A9B000B444833196878687A6A82
:101430001346DB009B1A9B00034444331B6819448A
:1014400078687A6A1346DB009B1A9B000344483392
:1014500019607B6A002B13D179687A6A1346DB0026
:101460009B1A9B000B4450331B68002B08D17B68F0
:1014700018687B6803F571731A46012101F064FE58
:101480007B6ADBB21946786803F0FBF83B6903F02E
:101490000803002B08D07B6A5A01FB69134403F54B
:1014A00010631A46082393603B6903F01003002B76
:1014B00008D07B6A5A01FB69134403F510631A468E
:1014C000102393603B6903F04003002B08D07B6A34
:1014D0005A01FB69134403F510631A4640239360D5
:1014E0003B6903F00203002B08D07B6A5A01FB69B9
:1014F000134403F510631A46022393603B6903F01B
:101500008003002B03D0796A786800F0B9FB7B6A0E
:1015100001337B62BB6A5B08BB62BB6A002B7FF452
:1015200049AF7B681B68184601F049FD034603F08C
:101530000043B3F1004F22D1FB6903F500635B6800
:10154000FA6902F5006223F0010353607B6893F8A7
:10155000F433012B08D17B68002283F8F4230021A7
:10156000786800F06DFD02E0786803F0F7F87B68BA
:101570001B685A697B681B6802F000425A617B68ED
:101580001B68184601F01BFD034603F40063B3F526
:10159000006F12D1FB6903F500639B6803F0010340
:1015A000012B02D1786803F0B3F87B681B685A6995
:1015B0007B681B6802F400625A617B681B681846EE
:1015C00001F0FDFC034603F48053B3F5805F40F067
:1015D000C780FB6903F500635B68FA6902F5006286
:1015E00023F0010353607B681B681021184600F04C
:1015F00025FF0023FB6256E0FB6A5A01FB69134496
:1016000003F510631A464FF67F339360FB6A5A0165
:10161000FB69134403F510631B68FA6A5101FA6908
:101620000A4402F5106223F400131360FB6A5A01A6
:10163000FB69134403F510631B68FA6A5101FA69E8
:101640000A4402F5106243F000631360FB6A5A011A
:10165000FB69134403F530631A464FF67F339360FA
:10166000FB6A5A01FB69134403F530631B68FA6A8D
:101670005101FA690A4402F5306223F40013136041
:10168000FB6A5A01FB69134403F530631B68FA6A6D
:101690005101FA690A4402F5306243F000631360B5
:1016A000FB6A0133FB627B685B68FA6A9A42A3D3E8
:1016B000FB6903F50063DB69FA6902F5006243F038
:1016C0000113D3617B681B6B002B16D0FB6903F5FC
:1016D0000063D3F88430FA6902F5006243F00B032B
:1016E000C2F88430FB6903F500635B6CFA6902F5AC
:1016F000006243F00B03536415E0FB6903F50063DC
:101700005B69FA6902F5006243F4005343F02B036E
:101710005361FB6903F500631B69FA6902F5006216
:1017200043F00B031361FB6903F500631B68FA695F
:1017300002F5006223F4FE6313607B6818687B681F
:101740001B69D9B27B6803F571731A4601F0FCFC82
:101750007B681B685A697B681B6802F480525A6177
:101760007B681B68184601F02AFC034603F400530B
:10177000B3F5005F24D17B681B68184601F0C0FCFC
:101780007B681B68184600F07FFE03461A467B689C
:10179000DA607B681C6800F05FFC01467B68DB68F0
:1017A000DBB21A46204600F0A7FD786802F091FFF0
:1017B0007B681B685A697B681B6802F400525A6197
:1017C0007B681B68184601F0FAFB034603F0080328
:1017D000082B0AD1786802F06EFF7B681B685A6993
:1017E0007B681B6802F008025A617B681B68184618
:1017F00001F0E5FB034603F48013B3F5801F0FD11E
:1018000000237B627B6ADBB21946786802F0C6FF70
:101810007B681B685A697B681B6802F480125A61F6
:101820007B681B68184601F0CAFB034603F40013EB
:10183000B3F5001F0FD100237B627B6ADBB2194630
:10184000786802F099FF7B681B685A697B681B689F
:1018500002F400125A617B681B68184601F0AFFB66
:10186000034603F08043B3F1804F0AD1786802F059
:10187000A7FF7B681B685A697B681B6802F080427F
:101880005A617B681B68184601F099FB034603F018
:101890000403042B15D17B681B685B68BB61BB69C3
:1018A00003F00403002B02D0786802F097FF7B68F6
:1018B0001B6859687B681B68BA690A435A6000E074
:1018C00000BF3437BD4690BD80B582B000AF7860B0
:1018D0000B46FB707B6893F8BC33012B01D10223CC
:1018E00013E07B68012283F8BC237B68FA7883F8D5
:1018F00038207B681B68FA781146184601F039FBDE
:101900007B68002283F8BC23002318460837BD46B5
:1019100080BD80B584B000AF7860084611461A4695
:101920000346FB700B463B801346BB700023FB72E3
:1019300097F90330002B0FDAFB7803F00F02134600
:10194000DB009B1A9B0038337A6813440433FB6036
:10195000FB6801225A700FE0FB7803F00F02134678
:10196000DB009B1A9B0003F5FC737A681344043375
:10197000FB60FB6800225A70FB7803F00F03DAB2B9
:10198000FB681A703A88FB689A60FB68BA78DA706C
:10199000FB685B78002B04D0FB681B789AB2FB686D
:1019A000DA80BB78022B02D1FB6800221A717B68B7
:1019B00093F8BC33012B01D102230EE07B68012296
:1019C00083F8BC237B681B68F968184600F081FD2A
:1019D0007B68002283F8BC23FB7A18461037BD468B
:1019E00080BD80B586B000AFF8607A603B600B4682
:1019F000FB72FB7A03F00F021346DB009B1A9B007D
:101A000003F5FC73FA68134404337B617B697A68DD
:101A1000DA607B693A685A617B6900229A617B6966
:101A200000225A70FB7A03F00F03DAB27B691A7056
:101A3000FB681B69012B02D17A687B691A61FB7A0A
:101A400003F00F03002B09D1FB681868FB681B69C2
:101A5000DBB21A46796901F007F808E0FB681868FC
:101A6000FB681B69DBB21A46796900F0B9FD0023F7
:101A700018461837BD4680BD80B586B000AFF86007
:101A80007A603B600B46FB72FB7A03F00F02134651
:101A9000DB009B1A9B003833FA68134404337B61E4
:101AA0007B697A68DA607B693A685A617B690022EF
:101AB0009A617B6901225A70FB7A03F00F03DAB254
:101AC0007B691A70FB681B69012B02D17A687B69FC
:101AD0001A61FB7A03F00F03002B09D1FB68186829
:101AE000FB681B69DBB21A46796900F0BDFF08E0AC
:101AF000FB681868FB681B69DBB21A46796900F05D
:101B00006FFD002318461837BD4680BD80B584B0F0
:101B100000AF78600B46FB70FB7803F00F027B6828
:101B20005B689A4201D9012350E097F90330002BFA
:101B30000FDAFB7803F00F021346DB009B1A9B00C1
:101B400038337A6813440433FB60FB6801225A700F
:101B50000DE0FA781346DB009B1A9B0003F5FC733B
:101B60007A6813440433FB60FB6800225A70FB68F8
:101B700001229A70FB7803F00F03DAB2FB681A7047
:101B80007B6893F8BC33012B01D102231EE07B68F4
:101B9000012283F8BC237B681B68F968184601F0B2
:101BA00014F9FB7803F00F03002B0AD17B68186847
:101BB0007B681B69D9B27B6803F571731A4601F023
:101BC000C3FA7B68002283F8BC2300231846103731
:101BD000BD4680BD80B584B000AF78600B46FB7019
:101BE000FB7803F00F027B685B689A4201D90123FE
:101BF00042E097F90330002B0FDAFB7803F00F0275
:101C00001346DB009B1A9B0038337A681344043375
:101C1000FB60FB6801225A700FE0FB7803F00F02B3
:101C20001346DB009B1A9B0003F5FC737A68134490
:101C30000433FB60FB6800225A70FB6800229A7034
:101C4000FB7803F00F03DAB2FB681A707B6893F835
:101C5000BC33012B01D102230EE07B68012283F803
:101C6000BC237B681B68F968184601F01CF97B6887
:101C7000002283F8BC23002318461037BD4680BDE0
:101C800080B58AB002AF786039607B681B687B6181
:101C90007B693B613A681346DB009B1A9B00383333
:101CA0007A6813440433FB60FB689A69FB685B69DC
:101CB0009A4201D901236CE0FB685A69FB689B6971
:101CC000D31AFB61FB689B68FA699A4202D9FB68E8
:101CD0009B68FB61FB6903339B08BB612BE0FB68DE
:101CE0005A69FB689B69D31AFB61FB689B68FA69B8
:101CF0009A4202D9FB689B68FB61FB6903339B082E
:101D0000BB61FB68D9683B68DAB2FB6998B27B6853
:101D10001B69DBB200930346786900F0F8FFFB68AB
:101D2000DA68FB691A44FB68DA60FB689A69FB6948
:101D30001A44FB689A613B685A013B69134403F5F6
:101D400010639B699BB2BA699A4209D8FB689A6989
:101D5000FB685B699A4203D2FB685B69002BBED1CA
:101D6000FB685A69FB689B699A4211D83B6803F08B
:101D70000F03012202FA03F3BB603B6903F5006322
:101D80005A6BBB68DB43396901F5006113404B6353
:101D9000002318462037BD4680BD000080B586B0C0
:101DA00000AF786039607B681B687B617B693B6151
:101DB0007B693C3304331B68FB603B685A013B6919
:101DC000134403F530639B68BB607B681B69012B80
:101DD00040F0A080BB6803F00803002B15D0FB681F
:101DE000724A934240F2DD80BB6803F40043002B4B
:101DF00000F0D7803B685A013B69134403F5306318
:101E00001A464FF400439360CBE0BB6803F0200315
:101E1000002B09D03B685A013B69134403F530633A
:101E20001A4620239360BCE0BB6803F02803002B14
:101E300040F0B780FB685D4A93420FD9BB6803F45A
:101E40000043002B0AD03B685A013B69134403F559
:101E500030631A464FF400439360A2E079683A6811
:101E60001346DB009B1A9B000B4403F501731A68B1
:101E70003B6859013B690B4403F530631B69C3F3AD
:101E80001203D11A78683A681346DB009B1A9B004C
:101E9000034403F50573196079683A681346DB005B
:101EA0009B1A9B000B4403F50273196878683A6823
:101EB0001346DB009B1A9B00034403F501731B6868
:101EC000194478683A681346DB009B1A9B00034468
:101ED00003F5027319603B68002B14D179683A68E6
:101EE0001346DB009B1A9B000B4403F504731B682D
:101EF000002B08D17B6818687B6803F571731A465C
:101F0000012101F021F93B68DBB21946786802F043
:101F10009DFB46E0FB68264A934224D1BB6803F44C
:101F20000043002B0AD03B685A013B69134403F578
:101F300030631A464FF40043936032E0BB6803F00D
:101F40002003002B08D03B685A013B69134403F57A
:101F500030631A46202393603B68DBB219467868E9
:101F600002F074FB1DE03B68002B14D179683A68DD
:101F70001346DB009B1A9B000B4403F504731B689C
:101F8000002B08D17B6818687B6803F571731A46CB
:101F9000002101F0D9F83B68DBB21946786802F0FD
:101FA00055FB002318461837BD4680BD0A30544FF4
:101FB0000A31544F80B586B000AF786039607B68D5
:101FC0001B687B617B693B617B693C3304331B6825
:101FD000FB603B685A013B69134403F530639B681F
:101FE000BB60FB68154A93420ED9BB6803F40043FB
:101FF000002B09D03B685A013B69134403F5306359
:102000001A464FF400439360786802F00DFBFB68BA
:102010000A4A93420CD97B681B69012B08D17B6863
:1020200018687B6803F571731A46012101F08CF87A
:10203000002318461837BD4680BD00BF0A30544FF4
:1020400080B483B000AF78600B46FB7000BF0C37E4
:10205000BD465DF8047B704780B400AF034B1B683E
:102060001846BD465DF8047B704700BF00000020A5
:1020700080B582B000AF78607B681B681B6903F095
:102080000203022B22D17B681B68DB6803F002038A
:10209000022B1BD17B681B686FF002021A617B6800
:1020A00001221A777B681B689B6903F00303002BEE
:1020B00003D0786800F0EEF805E0786800F0E0F80A
:1020C000786800F0F1F87B6800221A777B681B685B
:1020D0001B6903F00403042B22D17B681B68DB68B7
:1020E00003F00403042B1BD17B681B686FF0040210
:1020F0001A617B6802221A777B681B689B6903F46C
:102100004073002B03D0786800F0C4F805E07868CD
:1021100000F0B6F8786800F0C7F87B6800221A77FC
:102120007B681B681B6903F00803082B22D17B68BE
:102130001B68DB6803F00803082B1BD17B681B6856
:102140006FF008021A617B6804221A777B681B68AB
:10215000DB6903F00303002B03D0786800F09AF8E2
:1021600005E0786800F08CF8786800F09DF87B68EE
:1021700000221A777B681B681B6903F01003102B81
:1021800022D17B681B68DB6803F01003102B1BD186
:102190007B681B686FF010021A617B6808221A774F
:1021A0007B681B68DB6903F44073002B03D07868FD
:1021B00000F070F805E0786800F062F8786800F0E8
:1021C00073F87B6800221A777B681B681B6903F031
:1021D0000103012B0ED17B681B68DB6803F0010350
:1021E000012B07D17B681B686FF001021A617868C8
:1021F000FEF75AFD7B681B681B6903F08003802B88
:102200000ED17B681B68DB6803F08003802B07D14D
:102210007B681B686FF080021A61786800F062F8D2
:102220007B681B681B6903F04003402B0ED17B6861
:102230001B68DB6803F04003402B07D17B681B68F9
:102240006FF040021A61786800F038F87B681B680C
:102250001B6903F02003202B0ED17B681B68DB6811
:1022600003F02003202B07D17B681B686FF020024E
:102270001A61786800F02CF800BF0837BD4680BDB1
:1022800080B483B000AF786000BF0C37BD465DF806
:10229000047B704780B483B000AF786000BF0C3718
:1022A000BD465DF8047B704780B483B000AF7860B2
:1022B00000BF0C37BD465DF8047B704780B483B027
:1022C00000AF786000BF0C37BD465DF8047B7047F7
:1022D00080B483B000AF786000BF0C37BD465DF8B6
:1022E000047B704780B483B000AF786000BF0C37C8
:1022F000BD465DF8047B704780B487B000AFF860DE
:10230000B9601346FB71FB79022B65D1BB68414A6A
:10231000934206D9BB68404A934202D80F237B619F
:1023200062E0BB683C4A934206D9BB683B4A934291
:1023300002D80E237B6157E0BB68384A934206D926
:10234000BB68374A934202D80D237B614CE0BB68DF
:10235000334A934206D9BB68324A934202D80C23CF
:102360007B6141E0BB682F4A934206D9BB682E4A85
:10237000934202D80B237B6136E0BB682A4A934222
:1023800006D9BB68294A934202D80A237B612BE015
:10239000BB68264A934206D9BB68254A934202D8B5
:1023A00009237B6120E0BB68214A934206D9BB68C0
:1023B000204A934202D808237B6115E0BB681D4A7E
:1023C000934206D9BB681C4A934202D807237B611B
:1023D0000AE006237B6107E0FB79002B02D1092389
:1023E0007B6101E009237B61FB68DB6823F47052A9
:1023F000FB68DA60FB68DA687B699B0203F4705360
:102400001A43FB68DA60002318461C37BD465DF8A6
:10241000047B7047BFACD800BFE1E400FF23F400A9
:102420007F7306019F491A01FF2C31013FA44C0123
:10243000FF356E011FABA601FF47E80180B485B0F0
:1024400000AF786039600023FB603B689B0143F07C
:1024500020027B681A61FB680133FB60FB68094A54
:10246000934201D9032306E07B681B6903F0200334
:10247000202BF0D0002318461437BD465DF8047BAE
:10248000704700BF400D030080B487B000AF786094
:102490007B683B613B6903F500639B6803F00603BF
:1024A000FB60FB68002B02D10023FB750AE0FB6890
:1024B000022B02D0FB68062B02D10223FB7501E040
:1024C0000F23FB75FB7D18461C37BD465DF8047B6A
:1024D000704780B485B000AF786039607B68FB607E
:1024E0003B681B78BB603B685B78012B3AD1FB688B
:1024F00003F50063DA693B681B7803F00F030121E1
:1025000001FA03F39BB2F96801F500611343CB6153
:10251000BB685A01FB68134403F510631B6803F49E
:102520000043002B55D1BB685A01FB68134403F5E7
:1025300010631A683B689B68C3F30A013B68DB7849
:102540009B041943BB689B050B431343BA685101B5
:10255000FA680A4402F5106243F0805343F40043E2
:10256000136036E0FB6803F50063DA693B681B78AB
:1025700003F00F03012101FA03F31B04F96801F5CD
:1025800000611343CB61BB685A01FB68134403F538
:1025900030631B6803F40043002B1AD1BB685A0157
:1025A000FB68134403F530631A683B689B68C3F308
:1025B0000A013B68DB789B040B431343BA68510163
:1025C000FA680A4402F5306243F0805343F4004352
:1025D0001360002318461437BD465DF8047B70472E
:1025E00080B58AB002AFF860B9601346FB71FB6832
:1025F000FB61BB681B78BB61BB685B78012B40F05B
:102600005C81BB685B69002B32D1BB695A01FB69F5
:10261000134403F510631B69BA695101FA690A444E
:1026200002F5106223F0FF5323F4C0131361BB695A
:102630005A01FB69134403F510631B69BA69510120
:10264000FA690A4402F5106243F400231361BB697E
:102650005A01FB69134403F510631B69BA69510100
:10266000FA690A4402F51062DB0CDB04136174E0C2
:10267000BB695A01FB69134403F510631B69BA690E
:102680005101FA690A4402F51062DB0CDB041361A4
:10269000BB695A01FB69134403F510631B69BA69EE
:1026A0005101FA690A4402F5106223F0FF5323F442
:1026B000C0131361BB695A01FB69134403F510632E
:1026C0001A69BB685969BB689B680B44591EBB6893
:1026D0009B68B1FBF3F3D9049D4B0B40B9694801EA
:1026E000F969014401F5106113430B61BB695A019B
:1026F000FB69134403F510631A69BB685B69C3F394
:102700001203B9694801F969014401F510611343E5
:102710000B61BB68DB78012B1FD1BB695A01FB69D8
:10272000134403F510631B69BA695101FA690A443D
:1027300002F5106223F0C0431361BB695A01FB69C3
:10274000134403F510631B69BA695101FA690A441D
:1027500002F5106243F000531361FB79012B4BD15A
:10276000BB681B69002B09D0BB695A01FB69134484
:1027700003F510631A46BB681B695361BB68DB78BD
:10278000012B28D1FB6903F500639B6803F4807378
:10279000002B10D1BB695A01FB69134403F5106388
:1027A0001B68BA695101FA690A4402F5106243F0E4
:1027B000005313600FE0BB695A01FB69134403F532
:1027C00010631B68BA695101FA690A4402F5106284
:1027D00043F080531360BB695A01FB69134403F54E
:1027E00010631B68BA695101FA690A4402F5106264
:1027F00043F0044313602FE1BB695A01FB691344A2
:1028000003F510631B68BA695101FA690A4402F5BD
:10281000106243F004431360BB68DB78012B15D0D2
:10282000BB685B69002B00F01781FB6903F500634F
:102830005A6BBB681B7803F00F03012101FA03F305
:10284000F96901F5006113434B6305E1FB6903F589
:1028500000639B6803F48073002B10D1BB695A019D
:10286000FB69134403F510631B68BA695101FA69E7
:102870000A4402F5106243F0005313600FE0BB6995
:102880005A01FB69134403F510631B68BA695101CF
:10289000FA690A4402F5106243F080531360BB6882
:1028A000D968BB681A78BB685B6998B2FB790093FA
:1028B0000346F86800F02BFACEE0BB695A01FB69C9
:1028C000134403F530631B69BA695101FA690A447C
:1028D00002F53062DB0CDB041361BB695A01FB6952
:1028E000134403F530631B69BA695101FA690A445C
:1028F00002F5306223F0FF5323F4C0131361BB6869
:102900005B69002B26D1BB695A01FB69134403F5AF
:1029100030631A69BB689B68C3F31203B969480145
:10292000F969014401F5306113430B61BB695A0138
:10293000FB69134403F530631B69BA695101FA69F5
:102940000A4402F5306243F40023136136E000BF0D
:102950000000F81FBB685A69BB689B6813445A1E85
:10296000BB689B68B2FBF3F3FB82BB695A01FB694E
:10297000134403F530631A69FB8AD904394B0B40C1
:10298000B9694801F969014401F5306113430B61EC
:10299000BB695A01FB69134403F530631A69BB68CC
:1029A0009B68F98A01FB03F3C3F31203B969480179
:1029B000F969014401F5306113430B61FB79012B87
:1029C0000DD1BB68DB68002B09D0BB68D968BB6937
:1029D0005A01FB69134403F530630A465A61BB6828
:1029E000DB78012B28D1FB6903F500639B6803F4B6
:1029F0008073002B10D1BB695A01FB69134403F5A6
:102A000030631B68BA695101FA690A4402F5306201
:102A100043F0005313600FE0BB695A01FB69134494
:102A200003F530631B68BA695101FA690A4402F57B
:102A3000306243F080531360BB695A01FB69134451
:102A400003F530631B68BA695101FA690A4402F55B
:102A5000306243F004431360002318462037BD461C
:102A600080BD00BF0000F81F80B487B000AFF860E1
:102A7000B9601346FB71FB687B61BB681B783B61E7
:102A8000BB685B78012B40F0CD80BB685B69002B95
:102A900032D13B695A017B69134403F510631B690A
:102AA0003A6951017A690A4402F5106223F0FF5332
:102AB00023F4C01313613B695A017B69134403F586
:102AC00010631B693A6951017A690A4402F5106280
:102AD00043F4002313613B695A017B69134403F5F6
:102AE00010631B693A6951017A690A4402F5106260
:102AF000DB0CDB0413614EE03B695A017B69134434
:102B000003F510631B693A6951017A690A4402F5B9
:102B10001062DB0CDB0413613B695A017B691344CF
:102B200003F510631B693A6951017A690A4402F599
:102B3000106223F0FF5323F4C0131361BB685A697A
:102B4000BB689B689A4203D9BB689A68BB685A61A4
:102B50003B695A017B69134403F510631B693A69A9
:102B600051017A690A4402F5106243F400231361AB
:102B70003B695A017B69134403F510631A69BB680A
:102B80005B69C3F31203396948017969014401F5AE
:102B9000106113430B61FB79012B1ED1BB681B69CC
:102BA000002B09D03B695A017B69134403F510637C
:102BB0001A46BB681B6953613B695A017B69134420
:102BC00003F510631B683A6951017A690A4402F5FA
:102BD000106243F00443136092E03B695A017B6941
:102BE000134403F510631B683A6951017A690A447A
:102BF00002F5106243F004431360BB685B69002B6D
:102C00007ED07B6903F500635A6BBB681B7803F0C9
:102C10000F03012101FA03F3796901F50061134300
:102C20004B636DE03B695A017B69134403F53063E4
:102C30001B693A6951017A690A4402F53062DB0C7A
:102C4000DB0413613B695A017B69134403F530636C
:102C50001B693A6951017A690A4402F5306223F02E
:102C6000FF5323F4C0131361BB685B69002B03D0CF
:102C7000BB689A68BB685A613B695A017B69134417
:102C800003F530631B693A6951017A690A4402F518
:102C9000306243F4002313613B695A017B6913449A
:102CA00003F530631A69BB689B68C3F31203396983
:102CB00048017969014401F5306113430B61FB79E7
:102CC000012B0DD1BB68DB68002B09D0BB68D9682C
:102CD0003B695A017B69134403F530630A465A6124
:102CE0003B695A017B69134403F530631B683A69F9
:102CF00051017A690A4402F5306243F004431360DB
:102D0000002318461C37BD465DF8047B704780B42D
:102D100089B000AFF860B96011461A460B46FB71E6
:102D20001346BB80FB687B61BB68FB6197F828306A
:102D3000002B1AD1BB8803339B083B610023BB6186
:102D40000FE0FB791A037B69134403F580531A469D
:102D5000FB691B681360FB690433FB61BB690133CA
:102D6000BB61BA693B699A42EBD30023184624370A
:102D7000BD465DF8047B704780B489B000AFF86051
:102D8000B9601346FB80FB687B61BB68FB61FB8815
:102D900003339B083B610023BB610BE07B6903F5B8
:102DA00080531A68FB691A60FB690433FB61BB69D5
:102DB0000133BB61BA693B699A42EFD3FB6918469C
:102DC0002437BD465DF8047B704780B485B000AF02
:102DD000786039607B68FB603B681B78BB603B6850
:102DE0005B78012B2CD1BB685A01FB68134403F5B7
:102DF00010631B68002B12DBBB68002B0FD0BB6875
:102E00005A01FB68134403F510631B68BA6851014B
:102E1000FA680A4402F5106223F080431360BB682D
:102E20005A01FB68134403F510631B68BA6851012B
:102E3000FA680A4402F5106243F4001313602BE0B1
:102E4000BB685A01FB68134403F530631B68002B11
:102E500012DBBB68002B0FD0BB685A01FB68134420
:102E600003F530631B68BA685101FA680A4402F539
:102E7000306223F080431360BB685A01FB6813443F
:102E800003F530631B68BA685101FA680A4402F519
:102E9000306243F400131360002318461437BD4614
:102EA0005DF8047B704780B485B000AF786039600E
:102EB0007B68FB603B681B78BB603B685B78012BE1
:102EC00028D1BB685A01FB68134403F510631B68E3
:102ED000BA685101FA680A4402F5106223F400133B
:102EE00013603B68DB78032B03D03B68DB78022B55
:102EF00038D1BB685A01FB68134403F510631B68A3
:102F0000BA685101FA680A4402F5106243F080532E
:102F1000136027E0BB685A01FB68134403F5306374
:102F20001B68BA685101FA680A4402F5306223F45A
:102F3000001313603B68DB78032B03D03B68DB781E
:102F4000022B0FD1BB685A01FB68134403F53063B1
:102F50001B68BA685101FA680A4402F5306243F00E
:102F600080531360002318461437BD465DF8047B78
:102F7000704780B485B000AF78600B46FB707B680B
:102F8000FB60FB6803F500631B68FA6802F50062EA
:102F900023F4FE631360FB6803F500631A68FB7893
:102FA0001B0103F4FE63F96801F5006113430B6034
:102FB000002318461437BD465DF8047B704780B483
:102FC00085B000AF78607B685B69FB607B689B695C
:102FD000FA681340FB60FB6818461437BD465DF87D
:102FE000047B704780B485B000AF78607B68FB607D
:102FF000FB6803F500639B69BB60FB6803F5006336
:10300000DB69BA681340BB60BB681B0C18461437F9
:10301000BD465DF8047B704780B485B000AF786032
:103020007B68FB60FB6803F500639B69BB60FB6822
:1030300003F50063DB69BA681340BB60BB689BB2F1
:1030400018461437BD465DF8047B704780B485B0E0
:1030500000AF78600B46FB707B68FB60FB785A0121
:10306000FB68134403F530639B68BB60FB6803F5A2
:1030700000635B69BA681340BB60BB6818461437CD
:10308000BD465DF8047B704780B487B000AF7860C0
:103090000B46FB707B687B617B6903F500631B69F2
:1030A0003B617B6903F500635B6BFB60FB7803F0BE
:1030B0000F03FA6822FA03F3DB01DBB23A69134328
:1030C0003B61FB785A017B69134403F510639B68ED
:1030D0003A691340BB60BB6818461C37BD465DF8B3
:1030E000047B704780B483B000AF78607B685B6915
:1030F00003F0010318460C37BD465DF8047B7047AA
:1031000080B485B000AF78607B68FB60FB6803F536
:1031100010631B68FA6802F5106223F4FF6323F062
:1031200007031360FB6803F500635B68FA6802F548
:10313000006243F480735360002318461437BD4681
:103140005DF8047B7047000080B487B000AFF86082
:103150000B467A60FB72FB687B61FB683C3304338F
:103160001B683B613B69264A93420AD97B6903F598
:1031700030631B6803F00043B3F1004F01D100231B
:1031800037E07B6903F530631A46002313617B69DE
:1031900003F530631B697A6902F5306243F400235A
:1031A00013617B6903F530631B697A6902F530624C
:1031B00043F0180313617B6903F530631B697A6977
:1031C00002F5306243F0C0431361FB7A012B0FD14B
:1031D0007B6903F530631A467B6853617B6903F5AD
:1031E00030631B687A6902F5306243F08023136014
:1031F000002318461C37BD465DF8047B704700BFAE
:103200000A30544F80B483B000AF78600023184672
:103210000C37BD465DF8047B704780B584B000AFC5
:1032200078600B46FB700323FB737B68D3F8B832DE
:10323000002B09D07B68D3F8B8321B68FA781146A6
:10324000786898470346FB73FB7B18461037BD46EA
:1032500080BD80B582B000AF78600B46FB707B68A4
:10326000D3F8B832002B07D07B68D3F8B8325B684C
:10327000FA78114678689847002318460837BD4603
:1032800080BD80B584B000AF786039607B6803F2A0
:10329000AA233968184600F02BFF7B680122C3F887
:1032A00094227B68B3F8B0321A467B68C3F8982240
:1032B0007B6893F8AA3203F01F03012B0ED0012B79
:1032C00002D3022B14D01DE07B6803F2AA23194617
:1032D000786800F017FA0346FB7320E07B6803F27E
:1032E000AA231946786800F07BFA0346FB7316E0C0
:1032F0007B6803F2AA231946786800F0B7FA034600
:10330000FB730CE07B6893F8AA3223F07F03DBB2F7
:103310001946786801F096FA0346FB7300BFFB7B01
:1033200018461037BD4680BD80B586B000AFF86046
:103330000B467A60FB72FB7A002B37D1FB6803F5F2
:10334000AA733B61FB68D3F89432032B4AD13B69E3
:103350009A683B69DB689A4213D93B699A683B6972
:10336000DB68D21A3B699A603B69DA683B699B6803
:10337000934228BF13461A467968F86800F02FFF79
:1033800030E0FB68D3F8B8321B69002B0AD0FB6829
:1033900093F89C32032B05D1FB68D3F8B8321B6934
:1033A000F8689847F86800F02BFF1BE0FB68D3F83B
:1033B000B8329B69002B13D0FB6893F89C32032B27
:1033C0000ED1FB68D3F8B8329B69FA7A1146F868D7
:1033D00098470346FB75FB7D002B03D0FB7D02E085
:1033E000032300E0002318461837BD4680BD80B592
:1033F00086B000AFF8600B467A60FB72FB7A002B58
:103400006AD1FB6814333B61FB68D3F89432022B1A
:1034100055D13B699A683B69DB689A4214D93B698C
:103420009A683B69DB68D21A3B699A603B699B6882
:103430001A467968F86800F0C1FE002300220021D6
:10344000F86801F0A9FA3AE03B69DA683B699B68E1
:103450009A421CD13B695A683B69DB689A4216D391
:103460003B695A68FB68D3F898329A420FD200221F
:103470000021F86800F0A2FEFB680022C3F8982241
:10348000002300220021F86801F086FA17E0FB68AB
:10349000D3F8B832DB68002B0AD0FB6893F89C3273
:1034A000032B05D1FB68D3F8B832DB68F86898477E
:1034B0008021F86801F0C6F9F86800F0B4FEFB68F6
:1034C00093F8A032012B23D1F868FFF79BFEFB682D
:1034D000002283F8A0221BE0FB68D3F8B8325B69B6
:1034E000002B13D0FB6893F89C32032B0ED1FB68A2
:1034F000D3F8B8325B69FA7A1146F8689847034600
:10350000FB75FB7D002B03D0FB7D02E0032300E075
:10351000002318461837BD4680BD80B582B000AF85
:1035200078607B68012283F89C227B680022C3F8C4
:1035300094227B6800225A607B680022C3F8A42290
:103540007B68D3F8BC32002B09D07B68D3F8B83243
:103550005B687A685268D2B211467868984740230F
:1035600000220021786801F047F97B680122A3F866
:1035700064217B684022C3F860214023002280211F
:10358000786801F039F97B6801229A847B684022CF
:103590001A62002318460837BD4680BD80B483B048
:1035A00000AF78600B46FB707B68FA781A740023D2
:1035B00018460C37BD465DF8047B704780B483B075
:1035C00000AF78607B6893F89C227B6883F89D222B
:1035D0007B68042283F89C22002318460C37BD46E2
:1035E0005DF8047B704780B483B000AF78607B687F
:1035F00093F89C32042B05D17B6893F89D227B685D
:1036000083F89C22002318460C37BD465DF8047BE6
:10361000704780B582B000AF78607B6893F89C32C9
:10362000032B0BD17B68D3F8B832DB69002B05D0B4
:103630007B68D3F8B832DB6978689847002318466E
:103640000837BD4680BD80B483B000AF78600B46BC
:10365000FB70002318460C37BD465DF8047B7047AD
:1036600080B483B000AF78600B46FB70002318462F
:103670000C37BD465DF8047B704780B483B000AF63
:103680007860002318460C37BD465DF8047B704710
:1036900080B582B000AF78607B68012283F89C22FD
:1036A0007B68D3F8B832002B09D07B68D3F8B832E6
:1036B0005B687A685268D2B21146786898470023EE
:1036C00018460837BD4680BD80B487B000AF78602B
:1036D0007B687B617B691B787B827B6901337B61C3
:1036E0007B691B783B823B8A1B021AB2B7F9123006
:1036F00013431BB2FB81FB8918461C37BD465DF89E
:10370000047B704780B584B000AF786039600023D7
:10371000FB733B681B7803F06003202B04D0402B25
:1037200002D0002B0AD050E07B68D3F8B8329B68F7
:103730003968786898470346FB734BE03B685B78D1
:10374000092B3CD801A252F823F000BFA137000892
:10375000B5370008BF370008AB370008BF3700088F
:103760007F37000875370008BF3700089737000813
:10377000893700083968786800F0CEF924E03968A4
:10378000786800F033FB1FE03968786800F070FB60
:103790000346FB7318E03968786800F00DFC13E00D
:1037A0003968786800F03CFC0EE03968786800F011
:1037B0006AFC09E03968786800F079FC04E039684F
:1037C000786800F0CFFC00BF04E03968786800F04A
:1037D000C9FC00BFFB7B18461037BD4680BD00BF4B
:1037E00080B584B000AF786039600023FB733B681C
:1037F0001B7803F06003202B03D0402B01D0002B5B
:103800002AD17B6893F89C32013B022B1DD83B6880
:103810009B88DBB2012B13D87B68D3F8B8329B6846
:103820003968786898470346FB733B68DB88002B50
:1038300010D1FB7B002B0DD1786800F0E1FC09E092
:103840003968786800F08EFC04E03968786800F028
:1038500089FC00E000BF04E03968786800F082FC71
:1038600000BFFB7B18461037BD4680BD80B584B0D5
:1038700000AF786039600023FB733B689B88BB73A3
:103880003B681B7803F06003202B04D0402B02D050
:10389000002B0AD035E17B68D3F8B8329B683968D1
:1038A000786898470346FB7330E13B685B78012BEF
:1038B0003ED0032B02D0002B77D01CE17B6893F81D
:1038C0009C32022B02D0032B15D02BE0BB7B002BAC
:1038D0000CD0BB7B802B09D0BB7B1946786800F0ED
:1038E000B1FF8021786800F0ADFF20E0396878688A
:1038F00000F038FC1BE03B685B88002B0ED1BB7BE3
:10390000002B0BD0BB7B802B08D03B68DB88002BC7
:1039100004D1BB7B1946786800F094FF786800F00A
:103920006FFC04E03968786800F01CFC00BFE7E039
:103930007B6893F89C32022B02D0032B15D02DE02C
:10394000BB7B002B0CD0BB7B802B09D0BB7B1946EB
:10395000786800F077FF8021786800F073FF23E03B
:103960003968786800F0FEFB1EE03B685B88002B3E
:1039700019D1BB7B03F07F03002B04D0BB7B19461E
:10398000786800F07EFF786800F03AFC7B68D3F836
:10399000B8329B6839687868984704E03968786875
:1039A00000F0E0FB00E000BFAAE07B6893F89C32E7
:1039B000022B02D0032B32D097E0BB7B002B07D029
:1039C000BB7B802B04D03968786800F0CBFB91E09A
:1039D00097F90E30002B0BDABB7B03F07F02134606
:1039E0009B0013449B0010337A68134404330BE0AC
:1039F000BB7B03F07F0213469B0013449B0003F53F
:103A0000A8737A6813440433BB60BB6800221A6051
:103A1000BB6802221946786800F0B5FB6AE097F9A6
:103A20000E30002B11DABB7B03F00F0279681346CE
:103A30009B0013449B000B4424331B88002B17D19D
:103A40003968786800F08EFB54E0BB7B03F00F020E
:103A5000796813469B0013449B000B4403F5B27333
:103A60001B88002B04D13968786800F07BFB41E0AB
:103A700097F90E30002B0BDABB7B03F07F02134665
:103A80009B0013449B0010337A68134404330BE00B
:103A9000BB7B03F07F0213469B0013449B0003F59E
:103AA000A8737A6813440433BB60BB7B002B02D03D
:103AB000BB7B802B03D1BB6800221A600EE0BB7B6E
:103AC0001946786800F0FCFE0346002B03D0BB6863
:103AD00001221A6002E0BB6800221A60BB68022261
:103AE0001946786800F04FFB04E03968786800F008
:103AF00039FB00BF04E03968786800F033FB00BF91
:103B000004E03968786800F02DFB00BFFB7B1846A5
:103B10001037BD4680BD000080B584B000AF78602E
:103B2000396000233B810023FB600023FB723B686C
:103B30005B881B0A9BB2013B062B00F2288101A285
:103B400052F823F0613B0008793B0008B93B0008BC
:103B50008F3D00088F3D00082F3D00085B3D0008A9
:103B60007B68D3F8B4321B687A68127C07F10801CD
:103B700010469847F86012E17B681B7C002B0DD142
:103B80007B68D3F8B8329B6A07F108021046984761
:103B9000F860FB68013302221A7000E17B68D3F8F9
:103BA000B832DB6A07F1080210469847F860FB68F4
:103BB000013302221A70F2E03B685B88DBB2052B0E
:103BC00000F2AC8001A252F823F000BFE53B0008F0
:103BD000193C00084D3C0008813C0008B53C000839
:103BE000E93C00087B68D3F8B4325B68002B0BD04B
:103BF0007B68D3F8B4325B687A68127C07F10801FD
:103C000010469847F86091E03968786800F0AAFAA1
:103C1000FB7A0133FB7289E07B68D3F8B4329B688E
:103C2000002B0BD07B68D3F8B4329B687A68127C87
:103C300007F1080110469847F86077E0396878681E
:103C400000F090FAFB7A0133FB726FE07B68D3F8E7
:103C5000B432DB68002B0BD07B68D3F8B432DB685E
:103C60007A68127C07F1080110469847F8605DE019
:103C70003968786800F076FAFB7A0133FB7255E018
:103C80007B68D3F8B4321B69002B0BD07B68D3F868
:103C9000B4321B697A68127C07F108011046984714
:103CA000F86043E03968786800F05CFAFB7A013329
:103CB000FB723BE07B68D3F8B4325B69002B0BD01E
:103CC0007B68D3F8B4325B697A68127C07F108012B
:103CD00010469847F86029E03968786800F042FAA1
:103CE000FB7A0133FB7221E07B68D3F8B4329B6925
:103CF000002B0BD07B68D3F8B4329B697A68127CB6
:103D000007F1080110469847F8600FE039687868B5
:103D100000F028FAFB7A0133FB7207E03968786813
:103D200000F020FAFB7A0133FB7200BF37E07B68BA
:103D30001B7C002B09D17B68D3F8B8325B6B07F191
:103D4000080210469847F86029E03968786800F062
:103D500009FAFB7A0133FB7221E07B681B7C002BA4
:103D60000DD17B68D3F8B8321B6B07F108021046FF
:103D70009847F860FB68013307221A700FE0396832
:103D8000786800F0EFF9FB7A0133FB7207E03968DD
:103D9000786800F0E7F9FB7A0133FB7200BFFB7A29
:103DA000002B1ED13B68DB88002B16D03B89002BF3
:103DB0000ED03B68DA883B89934228BF13469BB2FA
:103DC0003B813B891A46F968786800F0DCF909E024
:103DD0003968786800F0C6F904E0786800F010FAF5
:103DE00000E000BF1037BD4680BD00BF80B584B085
:103DF00000AF786039603B689B88002B30D13B680E
:103E0000DB88002B2CD13B685B887F2B28D83B6854
:103E10005B88DBB203F07F03FB737B6893F89C3213
:103E2000032B04D13968786800F09CF91CE07B68AA
:103E3000FA7B83F89E22FB7B1946786800F06CFDC4
:103E4000786800F0DDF9FB7B002B04D07B68022250
:103E500083F89C2208E07B68012283F89C2203E01F
:103E60003968786800F07EF900BF1037BD4680BD24
:103E700080B584B000AF786039600023FB733B6885
:103E80005B88DAB24B4B1A704A4B1B78012B05D971
:103E90003968786800F066F9032387E07B6893F857
:103EA0009C32022B02D0032B25D071E0414B1B78B2
:103EB000002B1CD03F4B1B781A467B685A603D4B49
:103EC0001B7819467868FFF7A8F90346FB73FB7B5C
:103ED000002B04D03968786800F044F965E0786810
:103EE00000F08EF97B68032283F89C225DE07868FD
:103EF00000F086F959E02F4B1B78002B12D17B681C
:103F0000022283F89C222B4B1B781A467B685A604E
:103F1000284B1B7819467868FFF79BF9786800F002
:103F20006FF942E0234B1B781A467B685B689A4224
:103F30002AD07B685B68DBB219467868FFF789F99D
:103F40001C4B1B781A467B685A601A4B1B78194623
:103F50007868FFF762F90346FB73FB7B002B0FD0F9
:103F60003968786800F0FEF87B685B68DBB2194658
:103F70007868FFF76EF97B68022283F89C2214E0D0
:103F8000786800F03DF910E0786800F039F90CE04D
:103F90003968786800F0E6F8064B1B7819467868AF
:103FA000FFF757F90323FB7300BFFB7B184610375D
:103FB000BD4680BDF801002080B582B000AF7860BA
:103FC00039603B68DB88012B04D03968786800F0E1
:103FD000C9F821E07B6893F89C32012B17DB022B98
:103FE00002DD032B0BD012E07B6800229A607B6815
:103FF000083301221946786800F0C5F80CE07B68A8
:10400000043301221946786800F0BDF804E03968ED
:10401000786800F0A7F800BF00BF0837BD4680BD34
:1040200080B582B000AF786039607B6893F89C32CD
:10403000013B022B1ED83B68DB88022B04D0396879
:10404000786800F08FF81AE07B680122DA607B68FC
:10405000D3F8A432002B05D07B68DB6843F0020262
:104060007B68DA607B680C3302221946786800F0BE
:104070008AF804E03968786800F074F800BF00BF7F
:104080000837BD4680BD80B582B000AF786039602A
:104090003B685B88012B06D17B680122C3F8A42210
:1040A000786800F0ADF800BF0837BD4680BD80B528
:1040B00082B000AF786039607B6893F89C32013B36
:1040C000022B0BD83B685B88012B0CD17B6800224C
:1040D000C3F8A422786800F093F804E0396878689F
:1040E00000F040F800E000BF00BF0837BD4680BDCB
:1040F00080B584B000AF786039603B68FB60FB68D6
:104100001A787B681A70FB680133FB60FB681A78C9
:104110007B685A70FB680133FB60F868FFF7D4FADC
:1041200003461A467B685A80FB680133FB60FB68D4
:104130000133FB60F868FFF7C7FA03461A467B684D
:104140009A80FB680133FB60FB680133FB60F86811
:10415000FFF7BAFA03461A467B68DA8000BF1037C9
:10416000BD4680BD80B582B000AF786039608021E7
:10417000786800F067FB0021786800F063FB00BFFF
:104180000837BD4680BD80B584B000AFF860B96027
:104190007A60FB680222C3F89422FB687A689A610D
:1041A000FB687A68DA617B68BA680021F86800F019
:1041B000D2FB002318461037BD4680BD80B584B0C1
:1041C00000AFF860B9607A607B68BA680021F8686F
:1041D00000F0C1FB002318461037BD4680BD80B5F6
:1041E00084B000AFF860B9607A607B68BA6800217B
:1041F000F86800F0D1FB002318461037BD4680BD9B
:1042000080B582B000AF78607B680422C3F8942246
:10421000002300220021786800F09DFB002318464F
:104220000837BD4680BD80B582B000AF78607B683E
:104230000522C3F89422002300220021786800F0B0
:10424000ABFB002318460837BD4680BD80B485B05F
:1042500000AF786039607B685B68FB603B68FA6838
:104260005A60FB689A683B689A60FB689B683A688A
:104270005A60FB683A689A603B687A681A617B68A2
:104280001B685A1C7B681A6000BF1437BD465DF876
:10429000047B704780B485B000AF78607B681B6991
:1042A000FB607B685B687A6892689A607B689B6851
:1042B0007A6852685A60FB685B687A689A4203D1F0
:1042C0007B689A68FB685A607B6800221A61FB6809
:1042D0001B685A1EFB681A60FB681B681846143777
:1042E000BD465DF8047B704780B586B000AF002303
:1042F0007B614E4B1B68002B40F088804C4B1B6849
:1043000001333B614A4A3B6913603B69002B1FD173
:10431000484B1B681B68002B09D04FF0500383F3F8
:104320001188BFF36F8FBFF34F8F3B60FEE7414BA8
:104330001B68FB60404B1B683E4A13603E4AFB68AB
:1043400013603E4B1B6801333C4A136000F0E0F8F9
:104350003B4B1B683A699A4249D3364B1B681B6832
:10436000002B04D1364B4FF0FF321A603FE0314B47
:104370001B68DB68DB68BB60BB685B687B603A69B5
:104380007B689A4203D22E4A7B6813602FE0BB6899
:1043900004331846FFF77EFFBB689B6A002B04D0EE
:1043A000BB6818331846FFF775FFBB68DA6A254B00
:1043B0001B689A4203D9BB68DB6A224A1360BB6858
:1043C000DA6A13469B0013449B001F4A1A44BB68D9
:1043D000043319461046FFF739FFBB68DA6A1B4BF6
:1043E0001B68DB6A9A42B8D301237B61B5E7174BA0
:1043F0001B68DA6A144913469B0013449B000B4464
:104400001B68012B07D901237B6104E0104B1B685B
:1044100001330F4A13600F4B1B68002B01D001239F
:104420007B617B6918461837BD4680BD8006002039
:104430006806002060060020640600207806002040
:104440007C0600206C06002000020020FC010020F9
:10445000700600207406002080B485B000AF274BA2
:104460001B68002B03D0264B01221A6040E0244B2E
:1044700000221A60234B1B68FB600FE0FB68002BD7
:1044800009D14FF0500383F31188BFF36F8FBFF34F
:104490004F8F7B60FEE7FB68013BFB601A49FA68BF
:1044A00013469B0013449B000B441B68002BE5D074
:1044B000FA6813469B0013449B00134A1344BB60E5
:1044C000BB685B685A68BB685A60BB685A68BB685F
:1044D00008339A4204D1BB685B685A68BB685A606B
:1044E000BB685B68DB68094A1360064AFB681360B7
:1044F00000BF1437BD465DF8047B7047800600207E
:10450000740600206C06002000020020FC01002040
:1045100080B483B000AF0C4B1B681B68002B04D128
:104520000A4B4FF0FF321A6008E0074B1B68DB684C
:10453000DB687B607B685B68044A136000BF0C37F4
:10454000BD465DF8047B7047600600207C060020B5
:10455000074B19680868B0E8F04F80F30988BFF38B
:104560006F8F4FF0000080F311887047AFF3008029
:10457000FC01002000BF00BF0000000000000000A0
:10458000EFF30980BFF36F8F154B1A681EF0100F01
:1045900008BF20ED108A20E9F04F10602DE90900D6
:1045A0004FF0500080F31188BFF34F8FBFF36F8F30
:1045B000FFF752FF4FF0000080F3118809BC196823
:1045C0000868B0E8F04F1EF0100F08BFB0EC108A7A
:1045D00080F30988BFF36F8F704700BFAFF300808F
:1045E000FC01002000BF00BF80B582B000AF4FF0DB
:1045F000500383F31188BFF36F8FBFF34F8F7B603E
:10460000FFF772FE0346002B03D0064B4FF080529B
:104610001A6000233B603B6883F3118800BF0837B2
:10462000BD4680BD04ED00E080B582B000AF78608B
:104630007B68D3F804247B6803F571731946104630
:10464000FEF71FFE00BF0837BD4680BD80B582B0B3
:1046500000AF78600B46FB707B68D3F80404FA78EF
:1046600079681346DB009B1A9B000B4403F5027329
:104670001A68FB781946FEF757FE00BF0837BD469B
:1046800080BD80B582B000AF78600B46FB707B6860
:10469000D3F80404FA7879681346DB009B1A9B0070
:1046A0000B4448331A68FB781946FEF7A0FE00BF9A
:1046B0000837BD4680BD80B582B000AF78607B68AA
:1046C000D3F804341846FEF7A4FF00BF0837BD46F0
:1046D00080BD80B584B000AF78600123FB737B6838
:1046E000DB68022B01D0FCF7F1FA7B68D3F80434C5
:1046F000FA7B11461846FEF751FF7B68D3F8043465
:104700001846FEF70AFF00BF1037BD4680BD000007
:1047100080B582B000AF78607B68D3F80434184667
:10472000FEF74CFF7B681B6803F560631B687A68C3
:10473000126802F5606243F0010313607B681B6A34
:10474000002B05D0044B1B69034A43F00603136199
:1047500000BF0837BD4680BD00ED00E080B582B0E7
:1047600000AF78607B68D3F804341846FEF73BFF4F
:1047700000BF0837BD4680BD80B582B000AF78600D
:104780000B46FB707B68D3F80434FA781146184660
:10479000FEF766FF00BF0837BD4680BD80B582B01A
:1047A00000AF78600B46FB707B68D3F80434FA786E
:1047B00011461846FEF747FF00BF0837BD4680BDCB
:1047C00080B582B000AF78607B68D3F804341846B7
:1047D000FEF753FF00BF0837BD4680BD80B582B0ED
:1047E00000AF78607B68D3F804341846FEF750FFBA
:1047F00000BF0837BD4680BD80B584B000AF78608B
:10480000084611461A460346FB700B46BB7013461A
:104810003B800023FB730023BB737B68D3F8C40287
:10482000BB783A88F978FDF774F80346FB73FB7B95
:10483000184600F0D3F80346BB73BB7B184610370D
:10484000BD4680BD80B584B000AF78600B46FB707C
:104850000023FB730023BB737B68D3F8C432FA7860
:1048600011461846FDF752F90346FB73FB7B1846C9
:1048700000F0B4F80346BB73BB7B18461037BD4647
:1048800080BD80B584B000AF78600B46FB7000231C
:10489000FB730023BB737B68D3F8C432FA781146EC
:1048A0001846FDF797F90346FB73FB7B184600F0AB
:1048B00095F80346BB73BB7B18461037BD4680BDD9
:1048C00080B485B000AF78600B46FB707B68D3F88E
:1048D000C432FB6097F90330002B0BDAFB7803F04E
:1048E0007F02F9681346DB009B1A9B000B443E33A2
:1048F0001B780BE0FB7803F07F02F9681346DB00BE
:104900009B1A9B000B4403F5FF731B781846143762
:10491000BD465DF8047B704780B584B000AF786019
:104920000B46FB700023FB730023BB737B68D3F83B
:10493000C432FA7811461846FCF7C6FF0346FB73EB
:10494000FB7B184600F04AF80346BB73BB7B184656
:104950001037BD4680BD80B586B000AFF8607A6084
:104960003B600B46FB720023FB750023BB75FB68A5
:10497000D3F8C402F97A3B687A68FDF77DF80346FC
:10498000FB75FB7D184600F029F80346BB75BB7D1F
:1049900018461837BD4680BD80B586B000AFF860B8
:1049A0007A603B600B46FB720023FB750023BB75EE
:1049B000FB68D3F8C402F97A3B687A68FDF711F80E
:1049C0000346FB75FB7D184600F008F80346BB75EF
:1049D000BB7D18461837BD4680BD000080B485B049
:1049E00000AF0346FB710023FB73FB79032B17D841
:1049F00001A252F823F000BF094A00080F4A00083C
:104A0000154A00081B4A00080023FB730BE0032330
:104A1000FB7308E00123FB7305E00323FB7302E053
:104A20000323FB7300BFFB7B18461437BD465DF8BC
:104A3000047B7047014B1868704700BF08000020D6
:104A400070B50D4E0D4CA41BA4100025A54209D134
:104A50000B4E0C4C03F058FDA41BA4100025A542DE
:104A600005D170BD56F8253098470135EEE756F868
:104A7000253098470135F2E7408800084088000853
:104A80004088000844880008024B0146186800F07E
:104A900065B800BF0800002010B5431E0A449142CB
:104AA00000D110BD11F8014B03F8014FF7E70244A4
:104AB0000346934200D1704703F8011BF9E7000059
:104AC00038B50546002945D051F8043C0C1F002B91
:104AD000B8BFE41802F050FF1F4A1368104633B9FC
:104AE000636014602846BDE8384002F046BFA34228
:104AF0000CD921686218934204BF1A685B6863602E
:104B000004BF521822600460ECE713465A680AB1E9
:104B1000A242FAD919685818A0420BD12068014462
:104B2000581882421960DDD1106852685A600144F9
:104B30001960D7E702D90C232B60D3E7206821182E
:104B40008A4204BF11685268626004BF091821607C
:104B50005C60C7E738BD00BF8406002070B5CD1C7F
:104B600025F0030508350C2D38BF0C25002D064611
:104B700001DBA94203D90C233360002070BD02F091
:104B8000FBFE214A1468214691B9204C23681BB9C9
:104B9000304600F07BFE20602946304600F076FE6D
:104BA000431C24D10C233360304602F0E6FEE4E7D8
:104BB0000B685B1B18D40B2B0FD90B60CD50CC1896
:104BC000304602F0DAFE04F10B00231D20F007004E
:104BD000C31AD3D05A42E250D0E78C424B6816BF7A
:104BE000636013600C46EBE70C464968CCE7C41CD5
:104BF00024F00304A04205D0211A304600F046FEFE
:104C00000130CFD02560DBE7840600208806002035
:104C10002DE9FF4755EC104B0D9FDDF830A0002D1E
:104C20000E4691461946B8BF22462B4627F020076C
:104C3000BBBF05F100431D4600232D23B8BF14461A
:104C4000462F0B7004D0452F00D10136022100E021
:104C5000032103AB019302AB00933246534645EC6C
:104C6000104B01F085FD472F804602D119F0010F4E
:104C700026D0462F08EB060911D198F80030302BCA
:104C80000AD10022002320462946FBF725FF18B948
:104C9000C6F10106CAF80060DAF800309944002233
:104CA000002320462946FBF717FF38B93022039B23
:104CB0004B4505D2591C03911A70F8E7CDF80C90BA
:104CC000039B0E9AA3EB08034046136004B0BDE8B3
:104CD000F087F7B500290446BABF49422D232B239C
:104CE000092904F8022B437020DD0DF107031F464C
:104CF0000A2691FBF6F506FB15113031092D03F854
:104D0000011C03F1FF32294609DC3031023B02F875
:104D1000011CBB42224604D3101A03B0F0BD134657
:104D2000E7E713F8012B04F8012BF2E730231944CD
:104D30008370021DC170EFE72DE9F04F8DB00C4676
:104D4000DDF8588016461F46054602F0F5FD03685B
:104D500004931846FBF744FA00230A93D8F800306E
:104D60000590073323F0070303F1080294F818A015
:104D7000D4F800B0C8F80020D3E90023C4E9122316
:104D8000D4E9128929F000430793CDF818804FF039
:104D9000FF32A74BDDE90601FBF7D0FE70BB4FF0F9
:104DA000FF32A34BDDE90601FBF7AAFE30BB002270
:104DB000002340464946FBF799FE10B12D2384F8A5
:104DC00043309C4A9C4BBAF1470F8CBF90469846A3
:104DD00003232BF00402236122604FF000090097A7
:104DE00033460BAA2146284600F0E6F9013040F090
:104DF0008D804FF0FF300DB0BDE8F08F42464B463E
:104E000040464946FBF79AFE10B18C4A8C4BDAE7D4
:104E100061684B1C4BF480620AA83ED10623636094
:104E20000023CDE9020309AB009349EC108B0DF18F
:104E300023032260CDF804A061682846FFF7E8FE4E
:104E40000AF0DF03472B804609D1099BD81C02DBFF
:104E50006268934247DDAAF1020A5FFA8AFABAF160
:104E6000650F099924D80139524604F1500009917F
:104E7000FFF72FFF0A9A1318012A8146236102DCEB
:104E80002268D10701D5013323619DF82330002B1F
:104E9000A5D02D2384F84330A1E7BAF1670F00F0C5
:104EA0007781BAF1470FBBD10029B9D10123B6E709
:104EB000BAF1660F19D1002963680CDD216113B9BD
:104EC0002268D20702D501330B442361099BA365F5
:104ED0004FF00009D9E713B92268D00701D5023392
:104EE000F3E70123F1E74FF0670ADDE90932934266
:104EF00005DB22682361D107E8D50133E5E7002B04
:104F0000D4BFC3F1020301231344DEE723685A052B
:104F100007D42369424631462846B84701302BD191
:104F200067E7BAF1650F40F2DC8000220023D4E984
:104F30001201FBF7D1FD002833D00123414A31464D
:104F40002846B84701303FF454AFDDE909239A42BF
:104F500002DB2368D8070FD5DDE904233146284654
:104F6000B84701303FF445AF4FF0000804F11A098B
:104F70000A9B013B434509DC23689B0700F1038141
:104F8000E0680B9B9842B8BF184634E701234A46B5
:104F900031462846B84701303FF42BAF08F10108ED
:104FA000E6E7099B002B2BDC0123264A31462846E5
:104FB000B84701303FF41DAF099B23B90A9B13B9D1
:104FC0002368D907D8D5DDE9042331462846B847F8
:104FD00001303FF40EAF4FF0000904F11A0A099BAB
:104FE0005B424B4501DC0A9B94E701235246314664
:104FF0002846B84701303FF4FCAE09F10109EEE75D
:105000000A9AA36D9A42A8BF1A46002A914607DD64
:105010001346314642462846B84701303FF4E9AED0
:1050200004F11A034FF0000B29EAE979069315E021
:10503000FFFFEF7F24850008208500082C850008ED
:1050400028850008308500080123069A3146284645
:10505000B84701303FF4CDAE0BF1010BD4F858A0A6
:10506000AAEB09035B45EFDCDDE909239A42D04452
:1050700015DB2368DA0712D40A9B0999A3EB0A020D
:10508000A3EB010A9245A8BF9246BAF1000F0EDCCD
:105090004FF000082AEAEA7A04F11A0919E0DDE97A
:1050A000042331462846B8470130E5D1A1E65346EE
:1050B000424631462846B8470130E9D199E60123F6
:1050C0004A4631462846B84701303FF492AE08F1CF
:1050D0000108DDE909239B1AA3EB0A034345EEDC33
:1050E0004AE70A9A012A01DCDB073AD50123424646
:1050F00031462846B84701303FF47BAEDDE9042352
:1051000031462846B847013008F101083FF471AE36
:105110000A9B002203F1FF3AD4E912010023FBF7B6
:10512000DBFCC8B95346424631462846B8470130F1
:105130000ED15EE60123524631462846B84701307B
:105140003FF457AE08F101080A9B013B4345F1DCEF
:105150004B4604F15002DEE64FF0000804F11A0A53
:10516000F2E70123DFE701234A4631462846B847E4
:1051700001303FF43EAE08F10108E3680B9A9B1A38
:105180004345F0DCFCE64FF0000804F11909F4E7B0
:1051900000293FF48BAE0023CDE9020309AB009355
:1051A00049EC108B2260CDF804A00DF123032846B2
:1051B000FFF72EFD804648E62DE9F04791461F4651
:1051C0008A680B69DDF820809342B8BF1346C9F89E
:1051D000003091F8432006460C4612B10133C9F85D
:1051E00000302368990642BFD9F800300233C9F86D
:1051F0000030256815F0060507D104F1190AE368A7
:10520000D9F800209B1AAB4228DC94F8433022687E
:10521000003318BF012392062DD404F1430239460E
:105220003046C047013020D02368E568D9F8002017
:1052300003F00603042B08BFAD1AA36822690CBF54
:1052400025EAE57500259342C4BF9B1AED184FF07F
:1052500000091A344D451AD1002008E001235246B6
:1052600039463046C047013003D14FF0FF30BDE82A
:10527000F0870135C3E7E1185A1C302081F843005C
:10528000224494F8451082F843100233C5E7012305
:10529000224639463046C0470130E6D009F10109BF
:1052A000D8E700002DE9F04301F1430C0C46097EDC
:1052B00085B06E291746064698460C9A00F0B380D2
:1052C00022D8632936D00AD8002900F0B98058299D
:1052D00000F0838004F1420584F8421032E0642932
:1052E00001D06929F6D120681368050603F104018D
:1052F0002AD51B681160002B03DA2D225B4284F84B
:1053000043206F480A2239E0732900F09D8008D8B5
:105310006F2920D07029DDD1236843F0200323605A
:1053200003E0752917D07829D4D1782384F8453043
:10533000644855E01368191D1B68116004F14205AB
:1053400084F8423001238CE01B68116010F0400F9C
:1053500018BF1BB2CFE713682568181D1060280618
:1053600001D51B6802E06806FBD51B8854486F29ED
:1053700014BF0A220822002184F843106568A56042
:10538000002DC0F29580216821F004012160002BDE
:105390003DD1002D40F08E806546082A0BD1236850
:1053A000DB0708D5236962689A42DEBF302305F81F
:1053B000013C05F1FF35ACEB05032361CDF800801E
:1053C0003B4603AA21463046FFF7F6FE01304DD199
:1053D0004FF0FF3005B0BDE8F083394884F8451040
:1053E000136821681D1D1B6815600A060BD5CA07C6
:1053F00044BF41F0200121601BB9226822F0200245
:1054000022601022B7E74D0648BF9BB2EFE7654622
:10541000B3FBF2F102FB1133C35C05F8013D0B460F
:105420000029F5D1B9E7136825686169181D106076
:1054300028061B6801D5196002E06A06FBD51980B1
:10544000002323616546B9E71368191D11601D68C3
:10545000626800212846FAF7CBFE08B1401B606065
:1054600063682361002384F84330A7E723692A4651
:1054700039463046C0470130AAD023689B0713D471
:10548000E068039B9842B8BF1846A3E701234A4649
:1054900039463046C04701309AD00135E368039A57
:1054A0009B1AAB42F2DCEBE7002504F11909F5E7A2
:1054B000002BACD1037884F8423004F142056CE74C
:1054C00032850008438500082DE9F04F9A468B6825
:1054D00016465A1EB2F5AE7F87B083BF6FF4AE7228
:1054E0009B180193002386BF40F25D138B600193EC
:1054F0000B6888464FF0000B43F4F06348F81C3B00
:10550000CDE903BB07460C4645465A46D946CDF879
:1055100008B0A16881B133681B78492B71D04DD890
:10552000392B40D8312B80F088802D2B00F09080D3
:1055300015D82B2B00F08C80B9F1000F03D0236815
:1055400023F480732360013A012A00F2EA80454582
:1055500000F2DC800126304607B0BDE8F08F2E2B2C
:1055600000F09F80302BE7D1206810F4807F64D05A
:10557000019B20F08000206009F101091BB1013B73
:1055800001310193A160A368013BA360236901334A
:1055900023617368013B002B736040F3AC80336878
:1055A00001333360B5E7452B00F08580462B6AD088
:1055B000412BC1D1012ABFD1022246E0652B7AD00E
:1055C00018D8542B66D011D84E2BB5D1002A46D10D
:1055D000B9F1000F45D1216801F4E060B0F5E06F4A
:1055E0003FD121F4F061216001222EE0592B1ED021
:1055F000612BDEE76E2BE9D015D8662B43D0692BE3
:105600009AD1BBF1000F38D1B9F1000F97D12168C1
:1056100001F4E060B0F5E06F95D121F4F061216014
:105620004FF0010B11E0742B34D0792B84D1BBF1F6
:10563000070F81D14FF0080B07E012EB0B0F7FF43F
:105640007BAF216821F4C07121602B7001359AE78E
:10565000216808067FF570AF21F08001F4E7022A87
:1056600047D0BBF1010F03D0BBF1040F7FF464AF4F
:105670000BF1010B5FFA8BFBE7E7BBF1030FF7D0F0
:10568000BBF1050FF2E7BBF1020F7FF455AF4FF00E
:10569000030BDAE7BBF1060F7FF44EAF4FF0070BB9
:1056A000D3E7216888057FF547AF21F42071216099
:1056B000CDF80890C9E7216801F4A060B0F5806FCB
:1056C00006D048057FF538AFB9F1000F3FF43BAF86
:1056D000880558BF029821F4F06158BFA9EB00007B
:1056E00041F4C07158BFCDE9030521604FF00009B6
:1056F000ABE70322A9E7D4F880310592314638465A
:105700009847059A00283FF404AF15E7D4F87C3198
:1057100015F8011D3246384698472369013B23613D
:1057200015E70BF1FF33062B0AD8BBF1020F68D93E
:10573000ABF1030B5FFA8BFBA5EB0B0B5D454BD17C
:105740002368DA051FD55B0568D415F8011C2369A9
:10575000652903F1FF3305F1FF3B23610DD0452996
:105760000BD0D4F87C31324638469847236915F877
:10577000021C013BA5F1020B2361D4F87C313246B7
:10578000384698475D46266816F010067AD12E7086
:10579000236803F4C063B3F5806F42D1029BA9EB89
:1057A00003035A42002B49D100224146384600F0FB
:1057B000B3FE2568DAF8003015F0020F03F1040299
:1057C00059EC108BCAF8002043D01B68C3E900894C
:1057D000E3680133E360BEE6D4F87C3115F8011DBF
:1057E0003246384698472369013B2361A6E7D4F83F
:1057F0007C3115F8011D3246384698472369013B34
:1058000023614545F3D8A5E6D4F87C3115F8011D90
:105810003246384698472369013B23614545F3D812
:1058200098E6039B002BBFD004990A23324601312E
:10583000384600F0FDFE039B049DC21A04F26F136C
:105840009D4228BF04F5B7750F49284600F034F88B
:10585000AAE715F00405B8D11F6810EE102A4B46D0
:1058600010EE100A4946FBF769F928B1284600F006
:105870001DF887ED000AABE740464946FBF7BCF947
:105880003860A5E7002666E65485000838B5064C62
:105890000023054608462360FBF750FA431C02D15B
:1058A000236803B12B6038BD800B00209FED010AF7
:1058B000704700BF0000C07F0EB400B59CB01DABA8
:1058C000029006906FF00041094807910491094940
:1058D00053F8042B05910068019302A902F0B6FC6D
:1058E000029B00221A701CB05DF804EB03B07047F5
:1058F000080000200802FFFF70B504460D4645EC85
:10590000104B164602F006FB51EC100B7EB1C5F3AE
:105910000A53C3F16B03002B09DD1B0503F17F550F
:10592000002405F5401522462B46FAF76DFE70BDA2
:105930002DE9F04F1F46A1B00023814638460E46A0
:1059400017921C9301F0F5FF80460068FAF748FCB7
:105950004FF0000A04464FF0000B1B961B9B1A7871
:105960000D2A32D8092A36D2002A3ED000230D93C0
:105970001B9D2B78302B40F0AC806B78582B01D0DE
:10598000782B67D10D9B01931CAB009302971DAB45
:10599000884A1BA9484601F0F2FC10F007040646AD
:1059A00005D0062C2BD1013500231B950D93179B99
:1059B000002B40F09A850D9BE3B152460BF100435A
:1059C00043EC102B21B0BDE8F08F2B2A15D02D2AE7
:1059D00004D0202ACAD101331B93BFE701220D92C4
:1059E0005A1C1B925B78002BC2D1179B1B96002B75
:1059F00040F0798552465B46E2E70022EFE71C9AC9
:105A00003AB135211EA802F07DFB1C99484601F0F1
:105A1000E9FF013C042C06D8DFE804F00A03141760
:105A20000A00DDE91EAB3007C1D54BF0004BBEE7E5
:105A3000DDE91EA31D9A23F4801302F2334243EAE8
:105A4000025BF0E7DFF870B1EDE76FF0004B4FF06D
:105A5000FF3AE8E71B9B5A1C1B925B78302BF9D06E
:105A6000002BA4D00123002506931B9B08930795C8
:105A700005950A221B980778A7F13003D9B20929A6
:105A800029D92246D8F8001002F0D8FC002831D0DD
:105A90000020059C04903B460246652B01D0452B17
:105AA00014D124B910B9069B002B9ED000241B9E54
:105AB000731C1B9373782B2B78D02D2B70D04FF049
:105AC000000CA3F13007092F7CD91B964FF0000E74
:105AD0009AE00023C7E705990829DDBF079902FB73
